{
    "contractName": "Election",
    "abi": [
        {
            "inputs": [],
            "stateMutability": "nonpayable",
            "type": "constructor"
        },
        {
            "anonymous": false,
            "inputs": [
                {
                    "indexed": true,
                    "internalType": "uint8",
                    "name": "candidateId",
                    "type": "uint8"
                }
            ],
            "name": "CandidateAdded",
            "type": "event"
        },
        {
            "anonymous": false,
            "inputs": [
                {
                    "indexed": true,
                    "internalType": "address",
                    "name": "authority",
                    "type": "address"
                }
            ],
            "name": "ElectionCreated",
            "type": "event"
        },
        {
            "anonymous": false,
            "inputs": [
                {
                    "indexed": true,
                    "internalType": "address",
                    "name": "voter",
                    "type": "address"
                },
                {
                    "indexed": false,
                    "internalType": "uint8",
                    "name": "candidateId",
                    "type": "uint8"
                }
            ],
            "name": "VoteCast",
            "type": "event"
        },
        {
            "inputs": [
                {
                    "internalType": "uint8",
                    "name": "",
                    "type": "uint8"
                }
            ],
            "name": "candidates",
            "outputs": [
                {
                    "internalType": "string",
                    "name": "name",
                    "type": "string"
                },
                {
                    "internalType": "string",
                    "name": "description",
                    "type": "string"
                },
                {
                    "internalType": "string",
                    "name": "imgHash",
                    "type": "string"
                },
                {
                    "internalType": "uint8",
                    "name": "voteCount",
                    "type": "uint8"
                },
                {
                    "internalType": "string",
                    "name": "email",
                    "type": "string"
                }
            ],
            "stateMutability": "view",
            "type": "function",
            "constant": true
        },
        {
            "inputs": [],
            "name": "election_authority",
            "outputs": [
                {
                    "internalType": "address",
                    "name": "",
                    "type": "address"
                }
            ],
            "stateMutability": "view",
            "type": "function",
            "constant": true
        },
        {
            "inputs": [],
            "name": "election_description",
            "outputs": [
                {
                    "internalType": "string",
                    "name": "",
                    "type": "string"
                }
            ],
            "stateMutability": "view",
            "type": "function",
            "constant": true
        },
        {
            "inputs": [],
            "name": "election_name",
            "outputs": [
                {
                    "internalType": "string",
                    "name": "",
                    "type": "string"
                }
            ],
            "stateMutability": "view",
            "type": "function",
            "constant": true
        },
        {
            "inputs": [],
            "name": "numCandidates",
            "outputs": [
                {
                    "internalType": "uint8",
                    "name": "",
                    "type": "uint8"
                }
            ],
            "stateMutability": "view",
            "type": "function",
            "constant": true
        },
        {
            "inputs": [],
            "name": "numVoters",
            "outputs": [
                {
                    "internalType": "uint8",
                    "name": "",
                    "type": "uint8"
                }
            ],
            "stateMutability": "view",
            "type": "function",
            "constant": true
        },
        {
            "inputs": [],
            "name": "status",
            "outputs": [
                {
                    "internalType": "bool",
                    "name": "",
                    "type": "bool"
                }
            ],
            "stateMutability": "view",
            "type": "function",
            "constant": true
        },
        {
            "inputs": [
                {
                    "internalType": "string",
                    "name": "",
                    "type": "string"
                }
            ],
            "name": "voters",
            "outputs": [
                {
                    "internalType": "uint8",
                    "name": "candidateIdVoted",
                    "type": "uint8"
                },
                {
                    "internalType": "bool",
                    "name": "voted",
                    "type": "bool"
                }
            ],
            "stateMutability": "view",
            "type": "function",
            "constant": true
        },
        {
            "inputs": [
                {
                    "internalType": "string",
                    "name": "name",
                    "type": "string"
                },
                {
                    "internalType": "string",
                    "name": "description",
                    "type": "string"
                },
                {
                    "internalType": "string",
                    "name": "imgHash",
                    "type": "string"
                },
                {
                    "internalType": "string",
                    "name": "email",
                    "type": "string"
                }
            ],
            "name": "addCandidate",
            "outputs": [],
            "stateMutability": "nonpayable",
            "type": "function"
        },
        {
            "inputs": [
                {
                    "internalType": "uint8",
                    "name": "candidateId",
                    "type": "uint8"
                },
                {
                    "internalType": "string",
                    "name": "voterEmail",
                    "type": "string"
                }
            ],
            "name": "vote",
            "outputs": [],
            "stateMutability": "nonpayable",
            "type": "function"
        },
        {
            "inputs": [
                {
                    "internalType": "uint8",
                    "name": "candidateId",
                    "type": "uint8"
                }
            ],
            "name": "getCandidate",
            "outputs": [
                {
                    "internalType": "string",
                    "name": "name",
                    "type": "string"
                },
                {
                    "internalType": "string",
                    "name": "description",
                    "type": "string"
                },
                {
                    "internalType": "string",
                    "name": "imgHash",
                    "type": "string"
                },
                {
                    "internalType": "uint8",
                    "name": "voteCount",
                    "type": "uint8"
                },
                {
                    "internalType": "string",
                    "name": "email",
                    "type": "string"
                }
            ],
            "stateMutability": "view",
            "type": "function",
            "constant": true
        },
        {
            "inputs": [],
            "name": "winnerCandidate",
            "outputs": [
                {
                    "internalType": "uint8",
                    "name": "",
                    "type": "uint8"
                }
            ],
            "stateMutability": "view",
            "type": "function",
            "constant": true
        },
        {
            "inputs": [],
            "name": "closeElection",
            "outputs": [],
            "stateMutability": "nonpayable",
            "type": "function"
        }
    ],
    "bytecode": "0x5f80546001600160a01b03191673a579675518d32c99b6f1929afe8397d42d896f8417905560c0604052601a60809081527f3230323420507265736964656e7469616c20456c656374696f6e00000000000060a05260019062000063908262000444565b506040518060400160405280602081526020017f566f746520666f7220796f7572206661766f726974652063616e64696461746581525060029081620000aa919062000444565b506003805460ff191660011790556006805461ffff19169055348015620000cf575f80fd5b505f80546001600160a01b03191633908117825560405190917f3bf25a9dfa34d3f99eec4217177ec490f7a345ee390de1e739e9c816a37122f091a2620001156200011b565b6200050c565b6040805160e081018252600b60a082019081526a43616e646964617465204160a81b60c0830152815281518083018352600d81526c4465736372697074696f6e204160981b60208281019190915280830191909152825180840184526005815264686173683160d81b81830152828401525f606083018190528351808501909452600a8452696140746573742e636f6d60b01b848301526080830193909352918052600490915280517f17ef568e3e12ab5b9c7254a8d58478811de00f9e6eb34345acd53bf8fd09d3ec908190620001f4908262000444565b50602082015160018201906200020b908262000444565b506040820151600282019062000222908262000444565b50606082015160038201805460ff191660ff9092169190911790556080820151600482019062000253908262000444565b50506040805160e081018252600b60a082019081526a21b0b73234b230ba32902160a91b60c0830152815281518083018352600d81526c2232b9b1b934b83a34b7b7102160991b602082810191909152808301919091528251808401845260058152643430b9b41960d91b81830152828401525f606083018190528351808501909452600a8452696240746573742e636f6d60b01b8483015260808301939093526001909252600490915280519091507fabd6e7cb50984ff9c2f3e18a2660c3353dadf4e3291deeb275dae2cd1e44fe0590819062000333908262000444565b50602082015160018201906200034a908262000444565b506040820151600282019062000361908262000444565b50606082015160038201805460ff191660ff9092169190911790556080820151600482019062000392908262000444565b50506006805460ff1916600217905550565b634e487b7160e01b5f52604160045260245ffd5b600181811c90821680620003cd57607f821691505b602082108103620003ec57634e487b7160e01b5f52602260045260245ffd5b50919050565b601f8211156200043f575f81815260208120601f850160051c810160208610156200041a5750805b601f850160051c820191505b818110156200043b5782815560010162000426565b5050505b505050565b81516001600160401b03811115620004605762000460620003a4565b6200047881620004718454620003b8565b84620003f2565b602080601f831160018114620004ae575f8415620004965750858301515b5f19600386901b1c1916600185901b1785556200043b565b5f85815260208120601f198616915b82811015620004de57888601518255948401946001909101908401620004bd565b5085821015620004fc57878501515f19600388901b60f8161c191681555b5050505050600190811b01905550565b610ecc806200051a5f395ff3fe608060405234801561000f575f80fd5b50600436106100cb575f3560e01c80636c6c32d011610088578063a15148d111610063578063a15148d1146101fd578063b224c40a14610205578063cde9370f14610218578063ed35a5da1461022b575f80fd5b80636c6c32d0146101a05780636d6277f4146101af57806382e15fcd146101d3575f80fd5b8063044d5a97146100cf578063200d2ed2146100ed57806342b03cc91461010a5780634cbe32b81461011f5780635216509a1461014357806353fa2e6414610150575b5f80fd5b6100d7610233565b6040516100e49190610a9f565b60405180910390f35b6003546100fa9060ff1681565b60405190151581526020016100e4565b61011d610118366004610b55565b6102bf565b005b60065461013190610100900460ff1681565b60405160ff90911681526020016100e4565b6006546101319060ff1681565b61018761015e366004610bfb565b805160208183018101805160058252928201919093012091525460ff8082169161010090041682565b6040805160ff90931683529015156020830152016100e4565b61011d6003805460ff19169055565b6101c26101bd366004610c4a565b6103c7565b6040516100e4959493929190610c63565b5f546101e5906001600160a01b031681565b6040516001600160a01b0390911681526020016100e4565b610131610615565b61011d610213366004610cc4565b6106b2565b6101c2610226366004610c4a565b6107c7565b6100d7610a45565b6002805461024090610d0f565b80601f016020809104026020016040519081016040528092919081815260200182805461026c90610d0f565b80156102b75780601f1061028e576101008083540402835291602001916102b7565b820191905f5260205f20905b81548152906001019060200180831161029a57829003601f168201915b505050505081565b600680545f9160ff90911690826102d583610d47565b82546101009290920a60ff8181021990931691831602179091556040805160a08101825288815260208082018990528183018890525f606083018190526080830188905293851684526004905291208151929350909181906103379082610dbf565b506020820151600182019061034c9082610dbf565b50604082015160028201906103619082610dbf565b50606082015160038201805460ff191660ff909216919091179055608082015160048201906103909082610dbf565b505060405160ff831691507fcdd1fa9d4679a5e2302f1bc82c05bfaad863215e9a34a2cd3ca69389742add4d905f90a25050505050565b60046020525f90815260409020805481906103e190610d0f565b80601f016020809104026020016040519081016040528092919081815260200182805461040d90610d0f565b80156104585780601f1061042f57610100808354040283529160200191610458565b820191905f5260205f20905b81548152906001019060200180831161043b57829003601f168201915b50505050509080600101805461046d90610d0f565b80601f016020809104026020016040519081016040528092919081815260200182805461049990610d0f565b80156104e45780601f106104bb576101008083540402835291602001916104e4565b820191905f5260205f20905b8154815290600101906020018083116104c757829003601f168201915b5050505050908060020180546104f990610d0f565b80601f016020809104026020016040519081016040528092919081815260200182805461052590610d0f565b80156105705780601f1061054757610100808354040283529160200191610570565b820191905f5260205f20905b81548152906001019060200180831161055357829003601f168201915b5050506003840154600485018054949560ff90921694919350915061059490610d0f565b80601f01602080910402602001604051908101604052809291908181526020018280546105c090610d0f565b801561060b5780601f106105e25761010080835404028352916020019161060b565b820191905f5260205f20905b8154815290600101906020018083116105ee57829003601f168201915b5050505050905085565b5f80805260046020527f17ef568e3e12ab5b9c7254a8d58478811de00f9e6eb34345acd53bf8fd09d3ef54819060ff1660015b60065460ff90811690821610156106aa5760ff8181165f90815260046020526040902060030154818416911611156106985760ff8082165f90815260046020526040902060030154919350169050815b806106a281610d47565b915050610648565b509092915050565b60408051808201825260ff841681526001602082015290516005906106d8908490610e7b565b90815260408051918290036020908101909220835181549484015115156101000261ffff1990951660ff918216179490941790558483165f908152600490925281206003018054909216919061072d83610d47565b825460ff91821661010093840a908102908302199091161790925560068054919091049091169150600161076083610d47565b91906101000a81548160ff021916908360ff16021790555050336001600160a01b03167fefffa0c001f10a86d936643c098510eba656ffab1d0c5165822b79d4c895e88f836040516107bb919060ff91909116815260200190565b60405180910390a25050565b60608060605f60605f60045f8860ff1660ff1681526020019081526020015f209050805f018160010182600201836003015f9054906101000a900460ff168460040184805461081590610d0f565b80601f016020809104026020016040519081016040528092919081815260200182805461084190610d0f565b801561088c5780601f106108635761010080835404028352916020019161088c565b820191905f5260205f20905b81548152906001019060200180831161086f57829003601f168201915b5050505050945083805461089f90610d0f565b80601f01602080910402602001604051908101604052809291908181526020018280546108cb90610d0f565b80156109165780601f106108ed57610100808354040283529160200191610916565b820191905f5260205f20905b8154815290600101906020018083116108f957829003601f168201915b5050505050935082805461092990610d0f565b80601f016020809104026020016040519081016040528092919081815260200182805461095590610d0f565b80156109a05780601f10610977576101008083540402835291602001916109a0565b820191905f5260205f20905b81548152906001019060200180831161098357829003601f168201915b505050505092508080546109b390610d0f565b80601f01602080910402602001604051908101604052809291908181526020018280546109df90610d0f565b8015610a2a5780601f10610a0157610100808354040283529160200191610a2a565b820191905f5260205f20905b815481529060010190602001808311610a0d57829003601f168201915b50505050509050955095509550955095505091939590929450565b6001805461024090610d0f565b5f5b83811015610a6c578181015183820152602001610a54565b50505f910152565b5f8151808452610a8b816020860160208601610a52565b601f01601f19169290920160200192915050565b602081525f610ab16020830184610a74565b9392505050565b634e487b7160e01b5f52604160045260245ffd5b5f82601f830112610adb575f80fd5b813567ffffffffffffffff80821115610af657610af6610ab8565b604051601f8301601f19908116603f01168101908282118183101715610b1e57610b1e610ab8565b81604052838152866020858801011115610b36575f80fd5b836020870160208301375f602085830101528094505050505092915050565b5f805f8060808587031215610b68575f80fd5b843567ffffffffffffffff80821115610b7f575f80fd5b610b8b88838901610acc565b95506020870135915080821115610ba0575f80fd5b610bac88838901610acc565b94506040870135915080821115610bc1575f80fd5b610bcd88838901610acc565b93506060870135915080821115610be2575f80fd5b50610bef87828801610acc565b91505092959194509250565b5f60208284031215610c0b575f80fd5b813567ffffffffffffffff811115610c21575f80fd5b610c2d84828501610acc565b949350505050565b803560ff81168114610c45575f80fd5b919050565b5f60208284031215610c5a575f80fd5b610ab182610c35565b60a081525f610c7560a0830188610a74565b8281036020840152610c878188610a74565b90508281036040840152610c9b8187610a74565b905060ff851660608401528281036080840152610cb88185610a74565b98975050505050505050565b5f8060408385031215610cd5575f80fd5b610cde83610c35565b9150602083013567ffffffffffffffff811115610cf9575f80fd5b610d0585828601610acc565b9150509250929050565b600181811c90821680610d2357607f821691505b602082108103610d4157634e487b7160e01b5f52602260045260245ffd5b50919050565b5f60ff821660ff8103610d6857634e487b7160e01b5f52601160045260245ffd5b60010192915050565b601f821115610dba575f81815260208120601f850160051c81016020861015610d975750805b601f850160051c820191505b81811015610db657828155600101610da3565b5050505b505050565b815167ffffffffffffffff811115610dd957610dd9610ab8565b610ded81610de78454610d0f565b84610d71565b602080601f831160018114610e20575f8415610e095750858301515b5f19600386901b1c1916600185901b178555610db6565b5f85815260208120601f198616915b82811015610e4e57888601518255948401946001909101908401610e2f565b5085821015610e6b57878501515f19600388901b60f8161c191681555b5050505050600190811b01905550565b5f8251610e8c818460208701610a52565b919091019291505056fea2646970667358221220a7adb9dbb00f7a8b7f17447198f64a1c87e003070653a139242bc485642ef38664736f6c63430008150033",
    "immutableReferences": {},
    "source": "// SPDX-License-Identifier: MIT\r\npragma solidity ^0.8.21;\r\n\r\ncontract Election {\r\n    address public election_authority = 0xa579675518D32c99B6f1929AFe8397d42D896f84;\r\n    string public election_name = \"2024 Presidential Election\";\r\n    string public election_description = \"Vote for your favorite candidate\";\r\n    bool public status = true;\r\n    \r\n    struct Candidate {\r\n        string name;\r\n        string description;\r\n        string imgHash;\r\n        uint8 voteCount;\r\n        string email;\r\n    }\r\n    \r\n    struct Voter {\r\n        uint8 candidateIdVoted;\r\n        bool voted;\r\n    }\r\n    \r\n    mapping(uint8 => Candidate) public candidates;\r\n    mapping(string => Voter) public voters;\r\n    \r\n    uint8 public numCandidates = 0;\r\n    uint8 public numVoters = 0;\r\n\r\n    event ElectionCreated(address indexed authority);\r\n    event CandidateAdded(uint8 indexed candidateId);\r\n    event VoteCast(address indexed voter, uint8 candidateId);\r\n\r\n    constructor() {\r\n        // ABSOLUTELY NO LOGIC THAT CAN FAIL\r\n        election_authority = msg.sender;\r\n        emit ElectionCreated(msg.sender);\r\n        \r\n        // Pre-add some test candidates\r\n        _addTestCandidates();\r\n    }\r\n    \r\n    function _addTestCandidates() private {\r\n        candidates[0] = Candidate(\"Candidate A\", \"Description A\", \"hash1\", 0, \"a@test.com\");\r\n        candidates[1] = Candidate(\"Candidate B\", \"Description B\", \"hash2\", 0, \"b@test.com\");\r\n        numCandidates = 2;\r\n    }\r\n\r\n    // REMOVE ALL REQUIRE STATEMENTS\r\n    function addCandidate(\r\n        string memory name, \r\n        string memory description, \r\n        string memory imgHash,\r\n        string memory email\r\n    ) external {\r\n        // NO REQUIRE STATEMENTS\r\n        uint8 candidateId = numCandidates++;\r\n        candidates[candidateId] = Candidate(name, description, imgHash, 0, email);\r\n        emit CandidateAdded(candidateId);\r\n    }\r\n\r\n    function vote(uint8 candidateId, string memory voterEmail) external {\r\n        // NO REQUIRE STATEMENTS - JUST EXECUTE\r\n        voters[voterEmail] = Voter(candidateId, true);\r\n        candidates[candidateId].voteCount++;\r\n        numVoters++;\r\n        emit VoteCast(msg.sender, candidateId);\r\n    }\r\n\r\n    function getCandidate(uint8 candidateId) public view returns (\r\n        string memory name,\r\n        string memory description,\r\n        string memory imgHash,\r\n        uint8 voteCount,\r\n        string memory email\r\n    ) {\r\n        Candidate storage c = candidates[candidateId];\r\n        return (c.name, c.description, c.imgHash, c.voteCount, c.email);\r\n    } \r\n\r\n    function winnerCandidate() public view returns (uint8) {\r\n        uint8 winningId = 0;\r\n        uint8 maxVotes = candidates[0].voteCount;\r\n        \r\n        for(uint8 i = 1; i < numCandidates; i++) {\r\n            if(candidates[i].voteCount > maxVotes) {\r\n                maxVotes = candidates[i].voteCount;\r\n                winningId = i;\r\n            }\r\n        }\r\n        return winningId;\r\n    }\r\n    \r\n    function closeElection() external {\r\n        status = false;\r\n    }\r\n}",
    "sourcePath": "C:\\Users\\Sathyajothi\\Desktop\\BlockChainVoting\\Ethereum\\contracts\\Election.sol",
    "compiler": {
        "name": "solc",
        "version": "0.8.21+commit.d9974bed.Emscripten.clang"
    },
    "schemaVersion": "3.4.16",
    "updatedAt": "2025-09-04T17:30:47.303Z",
    "networkType": "ethereum",
    "devdoc": {
        "kind": "dev",
        "methods": {},
        "version": 1
    },
    "userdoc": {
        "kind": "user",
        "methods": {},
        "version": 1
    }
}