{
    "contractName": "Migrations",
    "abi": [
        {
            "inputs": [],
            "name": "last_completed_migration",
            "outputs": [
                {
                    "internalType": "uint256",
                    "name": "",
                    "type": "uint256"
                }
            ],
            "stateMutability": "view",
            "type": "function",
            "constant": true
        },
        {
            "inputs": [],
            "name": "owner",
            "outputs": [
                {
                    "internalType": "address",
                    "name": "",
                    "type": "address"
                }
            ],
            "stateMutability": "view",
            "type": "function",
            "constant": true
        },
        {
            "inputs": [
                {
                    "internalType": "uint256",
                    "name": "completed",
                    "type": "uint256"
                }
            ],
            "name": "setCompleted",
            "outputs": [],
            "stateMutability": "nonpayable",
            "type": "function"
        }
    ],
    "bytecode": "0x60806040525f80546001600160a01b03191633179055348015610020575f80fd5b506101438061002e5f395ff3fe608060405234801561000f575f80fd5b506004361061003f575f3560e01c8063445df0ac146100435780638da5cb5b1461005f578063fdacd57614610089575b5f80fd5b61004c60015481565b6040519081526020015b60405180910390f35b5f54610071906001600160a01b031681565b6040516001600160a01b039091168152602001610056565b61009c6100973660046100f6565b61009e565b005b5f546001600160a01b031633146100f15760405162461bcd60e51b81526020600482015260136024820152722932b9ba3934b1ba32b2103a379037bbb732b960691b604482015260640160405180910390fd5b600155565b5f60208284031215610106575f80fd5b503591905056fea264697066735822122020ba88847c11ce91808ab98706a29b5cf605a9fab07e205fa64ecdfd6110b37464736f6c63430008150033",
    "immutableReferences": {},
    "source": "// SPDX-License-Identifier: MIT\r\npragma solidity >=0.5.0 <0.9.0;\r\n\r\ncontract Migrations {\r\n  address public owner = msg.sender;\r\n  uint public last_completed_migration;\r\n\r\n  modifier restricted() {\r\n    require(msg.sender == owner, \"Restricted to owner\");\r\n    _;\r\n  }\r\n\r\n  function setCompleted(uint completed) public restricted {\r\n    last_completed_migration = completed;\r\n  }\r\n}",
    "sourcePath": "C:\\Users\\Sathyajothi\\Desktop\\BlockChainVoting\\Ethereum\\contracts\\Migrations.sol",
    "compiler": {
        "name": "solc",
        "version": "0.8.21+commit.d9974bed.Emscripten.clang"
    },
    "schemaVersion": "3.4.16",
    "updatedAt": "2025-09-04T17:30:47.315Z",
    "networkType": "ethereum",
    "devdoc": {
        "kind": "dev",
        "methods": {},
        "version": 1
    },
    "userdoc": {
        "kind": "user",
        "methods": {},
        "version": 1
    }
}